{
    "_format": "hh-sol-artifact-1",
    "contractName": "Japanese",
    "sourceName": "contracts/Japanese.sol",
    "abi": [
        {
            "inputs": [],
            "stateMutability": "nonpayable",
            "type": "constructor"
        },
        {
            "anonymous": false,
            "inputs": [
                {
                    "indexed": true,
                    "internalType": "address",
                    "name": "owner",
                    "type": "address"
                },
                {
                    "indexed": true,
                    "internalType": "address",
                    "name": "approved",
                    "type": "address"
                },
                {
                    "indexed": true,
                    "internalType": "uint256",
                    "name": "tokenId",
                    "type": "uint256"
                }
            ],
            "name": "Approval",
            "type": "event"
        },
        {
            "anonymous": false,
            "inputs": [
                {
                    "indexed": true,
                    "internalType": "address",
                    "name": "owner",
                    "type": "address"
                },
                {
                    "indexed": true,
                    "internalType": "address",
                    "name": "operator",
                    "type": "address"
                },
                {
                    "indexed": false,
                    "internalType": "bool",
                    "name": "approved",
                    "type": "bool"
                }
            ],
            "name": "ApprovalForAll",
            "type": "event"
        },
        {
            "anonymous": false,
            "inputs": [
                {
                    "indexed": true,
                    "internalType": "address",
                    "name": "previousOwner",
                    "type": "address"
                },
                {
                    "indexed": true,
                    "internalType": "address",
                    "name": "newOwner",
                    "type": "address"
                }
            ],
            "name": "OwnershipTransferred",
            "type": "event"
        },
        {
            "anonymous": false,
            "inputs": [
                {
                    "indexed": true,
                    "internalType": "address",
                    "name": "from",
                    "type": "address"
                },
                {
                    "indexed": true,
                    "internalType": "address",
                    "name": "to",
                    "type": "address"
                },
                {
                    "indexed": true,
                    "internalType": "uint256",
                    "name": "tokenId",
                    "type": "uint256"
                }
            ],
            "name": "Transfer",
            "type": "event"
        },
        {
            "inputs": [],
            "name": "MAX_SUPPLY",
            "outputs": [
                {
                    "internalType": "uint8",
                    "name": "",
                    "type": "uint8"
                }
            ],
            "stateMutability": "view",
            "type": "function"
        },
        {
            "inputs": [],
            "name": "MINT_PRICE",
            "outputs": [
                {
                    "internalType": "uint256",
                    "name": "",
                    "type": "uint256"
                }
            ],
            "stateMutability": "view",
            "type": "function"
        },
        {
            "inputs": [
                {
                    "internalType": "address",
                    "name": "to",
                    "type": "address"
                },
                {
                    "internalType": "uint256",
                    "name": "tokenId",
                    "type": "uint256"
                }
            ],
            "name": "approve",
            "outputs": [],
            "stateMutability": "nonpayable",
            "type": "function"
        },
        {
            "inputs": [
                {
                    "internalType": "address",
                    "name": "owner",
                    "type": "address"
                }
            ],
            "name": "balanceOf",
            "outputs": [
                {
                    "internalType": "uint256",
                    "name": "",
                    "type": "uint256"
                }
            ],
            "stateMutability": "view",
            "type": "function"
        },
        {
            "inputs": [
                {
                    "internalType": "uint256",
                    "name": "tokenId",
                    "type": "uint256"
                }
            ],
            "name": "getApproved",
            "outputs": [
                {
                    "internalType": "address",
                    "name": "",
                    "type": "address"
                }
            ],
            "stateMutability": "view",
            "type": "function"
        },
        {
            "inputs": [
                {
                    "internalType": "address",
                    "name": "owner",
                    "type": "address"
                },
                {
                    "internalType": "address",
                    "name": "operator",
                    "type": "address"
                }
            ],
            "name": "isApprovedForAll",
            "outputs": [
                {
                    "internalType": "bool",
                    "name": "",
                    "type": "bool"
                }
            ],
            "stateMutability": "view",
            "type": "function"
        },
        {
            "inputs": [],
            "name": "name",
            "outputs": [
                {
                    "internalType": "string",
                    "name": "",
                    "type": "string"
                }
            ],
            "stateMutability": "view",
            "type": "function"
        },
        {
            "inputs": [],
            "name": "owner",
            "outputs": [
                {
                    "internalType": "address",
                    "name": "",
                    "type": "address"
                }
            ],
            "stateMutability": "view",
            "type": "function"
        },
        {
            "inputs": [
                {
                    "internalType": "uint256",
                    "name": "tokenId",
                    "type": "uint256"
                }
            ],
            "name": "ownerOf",
            "outputs": [
                {
                    "internalType": "address",
                    "name": "",
                    "type": "address"
                }
            ],
            "stateMutability": "view",
            "type": "function"
        },
        {
            "inputs": [],
            "name": "renounceOwnership",
            "outputs": [],
            "stateMutability": "nonpayable",
            "type": "function"
        },
        {
            "inputs": [
                {
                    "internalType": "address",
                    "name": "to",
                    "type": "address"
                },
                {
                    "internalType": "string",
                    "name": "uri",
                    "type": "string"
                }
            ],
            "name": "safeMint",
            "outputs": [],
            "stateMutability": "payable",
            "type": "function"
        },
        {
            "inputs": [
                {
                    "internalType": "address",
                    "name": "from",
                    "type": "address"
                },
                {
                    "internalType": "address",
                    "name": "to",
                    "type": "address"
                },
                {
                    "internalType": "uint256",
                    "name": "tokenId",
                    "type": "uint256"
                }
            ],
            "name": "safeTransferFrom",
            "outputs": [],
            "stateMutability": "nonpayable",
            "type": "function"
        },
        {
            "inputs": [
                {
                    "internalType": "address",
                    "name": "from",
                    "type": "address"
                },
                {
                    "internalType": "address",
                    "name": "to",
                    "type": "address"
                },
                {
                    "internalType": "uint256",
                    "name": "tokenId",
                    "type": "uint256"
                },
                {
                    "internalType": "bytes",
                    "name": "data",
                    "type": "bytes"
                }
            ],
            "name": "safeTransferFrom",
            "outputs": [],
            "stateMutability": "nonpayable",
            "type": "function"
        },
        {
            "inputs": [
                {
                    "internalType": "address",
                    "name": "operator",
                    "type": "address"
                },
                {
                    "internalType": "bool",
                    "name": "approved",
                    "type": "bool"
                }
            ],
            "name": "setApprovalForAll",
            "outputs": [],
            "stateMutability": "nonpayable",
            "type": "function"
        },
        {
            "inputs": [
                {
                    "internalType": "bytes4",
                    "name": "interfaceId",
                    "type": "bytes4"
                }
            ],
            "name": "supportsInterface",
            "outputs": [
                {
                    "internalType": "bool",
                    "name": "",
                    "type": "bool"
                }
            ],
            "stateMutability": "view",
            "type": "function"
        },
        {
            "inputs": [],
            "name": "symbol",
            "outputs": [
                {
                    "internalType": "string",
                    "name": "",
                    "type": "string"
                }
            ],
            "stateMutability": "view",
            "type": "function"
        },
        {
            "inputs": [
                {
                    "internalType": "uint256",
                    "name": "tokenId",
                    "type": "uint256"
                }
            ],
            "name": "tokenURI",
            "outputs": [
                {
                    "internalType": "string",
                    "name": "",
                    "type": "string"
                }
            ],
            "stateMutability": "view",
            "type": "function"
        },
        {
            "inputs": [],
            "name": "totalSupply",
            "outputs": [
                {
                    "internalType": "uint8",
                    "name": "",
                    "type": "uint8"
                }
            ],
            "stateMutability": "view",
            "type": "function"
        },
        {
            "inputs": [
                {
                    "internalType": "address",
                    "name": "from",
                    "type": "address"
                },
                {
                    "internalType": "address",
                    "name": "to",
                    "type": "address"
                },
                {
                    "internalType": "uint256",
                    "name": "tokenId",
                    "type": "uint256"
                }
            ],
            "name": "transferFrom",
            "outputs": [],
            "stateMutability": "nonpayable",
            "type": "function"
        },
        {
            "inputs": [
                {
                    "internalType": "address",
                    "name": "newOwner",
                    "type": "address"
                }
            ],
            "name": "transferOwnership",
            "outputs": [],
            "stateMutability": "nonpayable",
            "type": "function"
        },
        {
            "inputs": [],
            "name": "withdrawFunds",
            "outputs": [],
            "stateMutability": "nonpayable",
            "type": "function"
        }
    ],
    "bytecode": "0x60806040523480156200001157600080fd5b506040518060400160405280601281526020017f4a6170616e6573652041727420546f6b656e00000000000000000000000000008152506040518060400160405280600381526020017f4a41540000000000000000000000000000000000000000000000000000000000815250816000908051906020019062000096929190620001d3565b508060019080519060200190620000af929190620001d3565b505050620000d2620000c6620000ef60201b60201c565b620000f760201b60201c565b620000e96008620001bd60201b62000d931760201c565b620002e8565b600033905090565b6000600760009054906101000a900473ffffffffffffffffffffffffffffffffffffffff16905081600760006101000a81548173ffffffffffffffffffffffffffffffffffffffff021916908373ffffffffffffffffffffffffffffffffffffffff1602179055508173ffffffffffffffffffffffffffffffffffffffff168173ffffffffffffffffffffffffffffffffffffffff167f8be0079c531659141344cd1fd0a4f28419497f9722a3daafe3b4186f6b6457e060405160405180910390a35050565b6001816000016000828254019250508190555050565b828054620001e19062000283565b90600052602060002090601f01602090048101928262000205576000855562000251565b82601f106200022057805160ff191683800117855562000251565b8280016001018555821562000251579182015b828111156200025057825182559160200191906001019062000233565b5b50905062000260919062000264565b5090565b5b808211156200027f57600081600090555060010162000265565b5090565b600060028204905060018216806200029c57607f821691505b60208210811415620002b357620002b2620002b9565b5b50919050565b7f4e487b7100000000000000000000000000000000000000000000000000000000600052602260045260246000fd5b61308580620002f86000396000f3fe60806040526004361061012a5760003560e01c806370a08231116100ab578063b88d4fde1161006f578063b88d4fde146103cc578063c002d23d146103f5578063c87b56dd14610420578063d204c45e1461045d578063e985e9c514610479578063f2fde38b146104b65761012a565b806370a08231146102f9578063715018a6146103365780638da5cb5b1461034d57806395d89b4114610378578063a22cb465146103a35761012a565b806323b872dd116100f257806323b872dd1461022857806324600fc31461025157806332cb6b0c1461026857806342842e0e146102935780636352211e146102bc5761012a565b806301ffc9a71461012f57806306fdde031461016c578063081812fc14610197578063095ea7b3146101d457806318160ddd146101fd575b600080fd5b34801561013b57600080fd5b5061015660048036038101906101519190612143565b6104df565b6040516101639190612558565b60405180910390f35b34801561017857600080fd5b506101816105c1565b60405161018e9190612573565b60405180910390f35b3480156101a357600080fd5b506101be60048036038101906101b99190612195565b610653565b6040516101cb91906124f1565b60405180910390f35b3480156101e057600080fd5b506101fb60048036038101906101f69190612107565b610699565b005b34801561020957600080fd5b506102126107b1565b60405161021f91906127b0565b60405180910390f35b34801561023457600080fd5b5061024f600480360381019061024a9190611fad565b6107c4565b005b34801561025d57600080fd5b50610266610824565b005b34801561027457600080fd5b5061027d61087c565b60405161028a91906127b0565b60405180910390f35b34801561029f57600080fd5b506102ba60048036038101906102b59190611fad565b610881565b005b3480156102c857600080fd5b506102e360048036038101906102de9190612195565b6108a1565b6040516102f091906124f1565b60405180910390f35b34801561030557600080fd5b50610320600480360381019061031b9190611f48565b610953565b60405161032d9190612795565b60405180910390f35b34801561034257600080fd5b5061034b610a0b565b005b34801561035957600080fd5b50610362610a1f565b60405161036f91906124f1565b60405180910390f35b34801561038457600080fd5b5061038d610a49565b60405161039a9190612573565b60405180910390f35b3480156103af57600080fd5b506103ca60048036038101906103c59190612077565b610adb565b005b3480156103d857600080fd5b506103f360048036038101906103ee9190611ffc565b610af1565b005b34801561040157600080fd5b5061040a610b53565b6040516104179190612795565b60405180910390f35b34801561042c57600080fd5b5061044760048036038101906104429190612195565b610b5e565b6040516104549190612573565b60405180910390f35b610477600480360381019061047291906120b3565b610b70565b005b34801561048557600080fd5b506104a0600480360381019061049b9190611f71565b610c7b565b6040516104ad9190612558565b60405180910390f35b3480156104c257600080fd5b506104dd60048036038101906104d89190611f48565b610d0f565b005b60007f80ac58cd000000000000000000000000000000000000000000000000000000007bffffffffffffffffffffffffffffffffffffffffffffffffffffffff1916827bffffffffffffffffffffffffffffffffffffffffffffffffffffffff191614806105aa57507f5b5e139f000000000000000000000000000000000000000000000000000000007bffffffffffffffffffffffffffffffffffffffffffffffffffffffff1916827bffffffffffffffffffffffffffffffffffffffffffffffffffffffff1916145b806105ba57506105b982610da9565b5b9050919050565b6060600080546105d090612a13565b80601f01602080910402602001604051908101604052809291908181526020018280546105fc90612a13565b80156106495780601f1061061e57610100808354040283529160200191610649565b820191906000526020600020905b81548152906001019060200180831161062c57829003601f168201915b5050505050905090565b600061065e82610e13565b6004600083815260200190815260200160002060009054906101000a900473ffffffffffffffffffffffffffffffffffffffff169050919050565b60006106a4826108a1565b90508073ffffffffffffffffffffffffffffffffffffffff168373ffffffffffffffffffffffffffffffffffffffff161415610715576040517f08c379a000000000000000000000000000000000000000000000000000000000815260040161070c90612755565b60405180910390fd5b8073ffffffffffffffffffffffffffffffffffffffff16610734610e5e565b73ffffffffffffffffffffffffffffffffffffffff16148061076357506107628161075d610e5e565b610c7b565b5b6107a2576040517f08c379a0000000000000000000000000000000000000000000000000000000008152600401610799906126d5565b60405180910390fd5b6107ac8383610e66565b505050565b600960009054906101000a900460ff1681565b6107d56107cf610e5e565b82610f1f565b610814576040517f08c379a000000000000000000000000000000000000000000000000000000000815260040161080b90612775565b60405180910390fd5b61081f838383610fb4565b505050565b61082c61121b565b610834610a1f565b73ffffffffffffffffffffffffffffffffffffffff166108fc479081150290604051600060405180830381858888f19350505050158015610879573d6000803e3d6000fd5b50565b606481565b61089c83838360405180602001604052806000815250610af1565b505050565b6000806002600084815260200190815260200160002060009054906101000a900473ffffffffffffffffffffffffffffffffffffffff169050600073ffffffffffffffffffffffffffffffffffffffff168173ffffffffffffffffffffffffffffffffffffffff16141561094a576040517f08c379a000000000000000000000000000000000000000000000000000000000815260040161094190612735565b60405180910390fd5b80915050919050565b60008073ffffffffffffffffffffffffffffffffffffffff168273ffffffffffffffffffffffffffffffffffffffff1614156109c4576040517f08c379a00000000000000000000000000000000000000000000000000000000081526004016109bb90612675565b60405180910390fd5b600360008373ffffffffffffffffffffffffffffffffffffffff1673ffffffffffffffffffffffffffffffffffffffff168152602001908152602001600020549050919050565b610a1361121b565b610a1d6000611299565b565b6000600760009054906101000a900473ffffffffffffffffffffffffffffffffffffffff16905090565b606060018054610a5890612a13565b80601f0160208091040260200160405190810160405280929190818152602001828054610a8490612a13565b8015610ad15780601f10610aa657610100808354040283529160200191610ad1565b820191906000526020600020905b815481529060010190602001808311610ab457829003601f168201915b5050505050905090565b610aed610ae6610e5e565b838361135f565b5050565b610b02610afc610e5e565b83610f1f565b610b41576040517f08c379a0000000000000000000000000000000000000000000000000000000008152600401610b3890612775565b60405180910390fd5b610b4d848484846114cc565b50505050565b66038d7ea4c6800081565b6060610b6982611528565b9050919050565b66038d7ea4c68000341015610bba576040517f08c379a0000000000000000000000000000000000000000000000000000000008152600401610bb190612655565b60405180910390fd5b606460ff16600960009054906101000a900460ff1660ff1610610c12576040517f08c379a0000000000000000000000000000000000000000000000000000000008152600401610c09906126b5565b60405180910390fd5b6000610c1e600861163b565b9050610c2a6008610d93565b610c348382611649565b610c3e8183611667565b6009600081819054906101000a900460ff1680929190610c5d90612abf565b91906101000a81548160ff021916908360ff16021790555050505050565b6000600560008473ffffffffffffffffffffffffffffffffffffffff1673ffffffffffffffffffffffffffffffffffffffff16815260200190815260200160002060008373ffffffffffffffffffffffffffffffffffffffff1673ffffffffffffffffffffffffffffffffffffffff16815260200190815260200160002060009054906101000a900460ff16905092915050565b610d1761121b565b600073ffffffffffffffffffffffffffffffffffffffff168173ffffffffffffffffffffffffffffffffffffffff161415610d87576040517f08c379a0000000000000000000000000000000000000000000000000000000008152600401610d7e906125b5565b60405180910390fd5b610d9081611299565b50565b6001816000016000828254019250508190555050565b60007f01ffc9a7000000000000000000000000000000000000000000000000000000007bffffffffffffffffffffffffffffffffffffffffffffffffffffffff1916827bffffffffffffffffffffffffffffffffffffffffffffffffffffffff1916149050919050565b610e1c816116db565b610e5b576040517f08c379a0000000000000000000000000000000000000000000000000000000008152600401610e5290612735565b60405180910390fd5b50565b600033905090565b816004600083815260200190815260200160002060006101000a81548173ffffffffffffffffffffffffffffffffffffffff021916908373ffffffffffffffffffffffffffffffffffffffff160217905550808273ffffffffffffffffffffffffffffffffffffffff16610ed9836108a1565b73ffffffffffffffffffffffffffffffffffffffff167f8c5be1e5ebec7d5bd14f71427d1e84f3dd0314c0f7b2291e5b200ac8c7c3b92560405160405180910390a45050565b600080610f2b836108a1565b90508073ffffffffffffffffffffffffffffffffffffffff168473ffffffffffffffffffffffffffffffffffffffff161480610f6d5750610f6c8185610c7b565b5b80610fab57508373ffffffffffffffffffffffffffffffffffffffff16610f9384610653565b73ffffffffffffffffffffffffffffffffffffffff16145b91505092915050565b8273ffffffffffffffffffffffffffffffffffffffff16610fd4826108a1565b73ffffffffffffffffffffffffffffffffffffffff161461102a576040517f08c379a0000000000000000000000000000000000000000000000000000000008152600401611021906125d5565b60405180910390fd5b600073ffffffffffffffffffffffffffffffffffffffff168273ffffffffffffffffffffffffffffffffffffffff16141561109a576040517f08c379a000000000000000000000000000000000000000000000000000000000815260040161109190612615565b60405180910390fd5b6110a5838383611747565b6110b0600082610e66565b6001600360008573ffffffffffffffffffffffffffffffffffffffff1673ffffffffffffffffffffffffffffffffffffffff1681526020019081526020016000206000828254611100919061291c565b925050819055506001600360008473ffffffffffffffffffffffffffffffffffffffff1673ffffffffffffffffffffffffffffffffffffffff16815260200190815260200160002060008282546111579190612895565b92505081905550816002600083815260200190815260200160002060006101000a81548173ffffffffffffffffffffffffffffffffffffffff021916908373ffffffffffffffffffffffffffffffffffffffff160217905550808273ffffffffffffffffffffffffffffffffffffffff168473ffffffffffffffffffffffffffffffffffffffff167fddf252ad1be2c89b69c2b068fc378daa952ba7f163c4a11628f55a4df523b3ef60405160405180910390a461121683838361174c565b505050565b611223610e5e565b73ffffffffffffffffffffffffffffffffffffffff16611241610a1f565b73ffffffffffffffffffffffffffffffffffffffff1614611297576040517f08c379a000000000000000000000000000000000000000000000000000000000815260040161128e90612715565b60405180910390fd5b565b6000600760009054906101000a900473ffffffffffffffffffffffffffffffffffffffff16905081600760006101000a81548173ffffffffffffffffffffffffffffffffffffffff021916908373ffffffffffffffffffffffffffffffffffffffff1602179055508173ffffffffffffffffffffffffffffffffffffffff168173ffffffffffffffffffffffffffffffffffffffff167f8be0079c531659141344cd1fd0a4f28419497f9722a3daafe3b4186f6b6457e060405160405180910390a35050565b8173ffffffffffffffffffffffffffffffffffffffff168373ffffffffffffffffffffffffffffffffffffffff1614156113ce576040517f08c379a00000000000000000000000000000000000000000000000000000000081526004016113c590612635565b60405180910390fd5b80600560008573ffffffffffffffffffffffffffffffffffffffff1673ffffffffffffffffffffffffffffffffffffffff16815260200190815260200160002060008473ffffffffffffffffffffffffffffffffffffffff1673ffffffffffffffffffffffffffffffffffffffff16815260200190815260200160002060006101000a81548160ff0219169083151502179055508173ffffffffffffffffffffffffffffffffffffffff168373ffffffffffffffffffffffffffffffffffffffff167f17307eab39ab6107e8899845ad3d59bd9653f200f220920489ca2b5937696c31836040516114bf9190612558565b60405180910390a3505050565b6114d7848484610fb4565b6114e384848484611751565b611522576040517f08c379a000000000000000000000000000000000000000000000000000000000815260040161151990612595565b60405180910390fd5b50505050565b606061153382610e13565b600060066000848152602001908152602001600020805461155390612a13565b80601f016020809104026020016040519081016040528092919081815260200182805461157f90612a13565b80156115cc5780601f106115a1576101008083540402835291602001916115cc565b820191906000526020600020905b8154815290600101906020018083116115af57829003601f168201915b5050505050905060006115dd6118e8565b90506000815114156115f3578192505050611636565b6000825111156116285780826040516020016116109291906124cd565b60405160208183030381529060405292505050611636565b611631846118ff565b925050505b919050565b600081600001549050919050565b611663828260405180602001604052806000815250611967565b5050565b611670826116db565b6116af576040517f08c379a00000000000000000000000000000000000000000000000000000000081526004016116a690612695565b60405180910390fd5b806006600084815260200190815260200160002090805190602001906116d6929190611d6c565b505050565b60008073ffffffffffffffffffffffffffffffffffffffff166002600084815260200190815260200160002060009054906101000a900473ffffffffffffffffffffffffffffffffffffffff1673ffffffffffffffffffffffffffffffffffffffff1614159050919050565b505050565b505050565b60006117728473ffffffffffffffffffffffffffffffffffffffff166119c2565b156118db578373ffffffffffffffffffffffffffffffffffffffff1663150b7a0261179b610e5e565b8786866040518563ffffffff1660e01b81526004016117bd949392919061250c565b602060405180830381600087803b1580156117d757600080fd5b505af192505050801561180857506040513d601f19601f82011682018060405250810190611805919061216c565b60015b61188b573d8060008114611838576040519150601f19603f3d011682016040523d82523d6000602084013e61183d565b606091505b50600081511415611883576040517f08c379a000000000000000000000000000000000000000000000000000000000815260040161187a90612595565b60405180910390fd5b805181602001fd5b63150b7a0260e01b7bffffffffffffffffffffffffffffffffffffffffffffffffffffffff1916817bffffffffffffffffffffffffffffffffffffffffffffffffffffffff1916149150506118e0565b600190505b949350505050565b606060405180602001604052806000815250905090565b606061190a82610e13565b60006119146118e8565b90506000815111611934576040518060200160405280600081525061195f565b8061193e846119e5565b60405160200161194f9291906124cd565b6040516020818303038152906040525b915050919050565b6119718383611b92565b61197e6000848484611751565b6119bd576040517f08c379a00000000000000000000000000000000000000000000000000000000081526004016119b490612595565b60405180910390fd5b505050565b6000808273ffffffffffffffffffffffffffffffffffffffff163b119050919050565b60606000821415611a2d576040518060400160405280600181526020017f30000000000000000000000000000000000000000000000000000000000000008152509050611b8d565b600082905060005b60008214611a5f578080611a4890612a76565b915050600a82611a5891906128eb565b9150611a35565b60008167ffffffffffffffff811115611aa1577f4e487b7100000000000000000000000000000000000000000000000000000000600052604160045260246000fd5b6040519080825280601f01601f191660200182016040528015611ad35781602001600182028036833780820191505090505b5090505b60008514611b8657600182611aec919061291c565b9150600a85611afb9190612ae9565b6030611b079190612895565b60f81b818381518110611b43577f4e487b7100000000000000000000000000000000000000000000000000000000600052603260045260246000fd5b60200101907effffffffffffffffffffffffffffffffffffffffffffffffffffffffffffff1916908160001a905350600a85611b7f91906128eb565b9450611ad7565b8093505050505b919050565b600073ffffffffffffffffffffffffffffffffffffffff168273ffffffffffffffffffffffffffffffffffffffff161415611c02576040517f08c379a0000000000000000000000000000000000000000000000000000000008152600401611bf9906126f5565b60405180910390fd5b611c0b816116db565b15611c4b576040517f08c379a0000000000000000000000000000000000000000000000000000000008152600401611c42906125f5565b60405180910390fd5b611c5760008383611747565b6001600360008473ffffffffffffffffffffffffffffffffffffffff1673ffffffffffffffffffffffffffffffffffffffff1681526020019081526020016000206000828254611ca79190612895565b92505081905550816002600083815260200190815260200160002060006101000a81548173ffffffffffffffffffffffffffffffffffffffff021916908373ffffffffffffffffffffffffffffffffffffffff160217905550808273ffffffffffffffffffffffffffffffffffffffff16600073ffffffffffffffffffffffffffffffffffffffff167fddf252ad1be2c89b69c2b068fc378daa952ba7f163c4a11628f55a4df523b3ef60405160405180910390a4611d686000838361174c565b5050565b828054611d7890612a13565b90600052602060002090601f016020900481019282611d9a5760008555611de1565b82601f10611db357805160ff1916838001178555611de1565b82800160010185558215611de1579182015b82811115611de0578251825591602001919060010190611dc5565b5b509050611dee9190611df2565b5090565b5b80821115611e0b576000816000905550600101611df3565b5090565b6000611e22611e1d846127f0565b6127cb565b905082815260208101848484011115611e3a57600080fd5b611e458482856129d1565b509392505050565b6000611e60611e5b84612821565b6127cb565b905082815260208101848484011115611e7857600080fd5b611e838482856129d1565b509392505050565b600081359050611e9a81612ff3565b92915050565b600081359050611eaf8161300a565b92915050565b600081359050611ec481613021565b92915050565b600081519050611ed981613021565b92915050565b600082601f830112611ef057600080fd5b8135611f00848260208601611e0f565b91505092915050565b600082601f830112611f1a57600080fd5b8135611f2a848260208601611e4d565b91505092915050565b600081359050611f4281613038565b92915050565b600060208284031215611f5a57600080fd5b6000611f6884828501611e8b565b91505092915050565b60008060408385031215611f8457600080fd5b6000611f9285828601611e8b565b9250506020611fa385828601611e8b565b9150509250929050565b600080600060608486031215611fc257600080fd5b6000611fd086828701611e8b565b9350506020611fe186828701611e8b565b9250506040611ff286828701611f33565b9150509250925092565b6000806000806080858703121561201257600080fd5b600061202087828801611e8b565b945050602061203187828801611e8b565b935050604061204287828801611f33565b925050606085013567ffffffffffffffff81111561205f57600080fd5b61206b87828801611edf565b91505092959194509250565b6000806040838503121561208a57600080fd5b600061209885828601611e8b565b92505060206120a985828601611ea0565b9150509250929050565b600080604083850312156120c657600080fd5b60006120d485828601611e8b565b925050602083013567ffffffffffffffff8111156120f157600080fd5b6120fd85828601611f09565b9150509250929050565b6000806040838503121561211a57600080fd5b600061212885828601611e8b565b925050602061213985828601611f33565b9150509250929050565b60006020828403121561215557600080fd5b600061216384828501611eb5565b91505092915050565b60006020828403121561217e57600080fd5b600061218c84828501611eca565b91505092915050565b6000602082840312156121a757600080fd5b60006121b584828501611f33565b91505092915050565b6121c781612950565b82525050565b6121d681612962565b82525050565b60006121e782612852565b6121f18185612868565b93506122018185602086016129e0565b61220a81612bd6565b840191505092915050565b60006122208261285d565b61222a8185612879565b935061223a8185602086016129e0565b61224381612bd6565b840191505092915050565b60006122598261285d565b612263818561288a565b93506122738185602086016129e0565b80840191505092915050565b600061228c603283612879565b915061229782612be7565b604082019050919050565b60006122af602683612879565b91506122ba82612c36565b604082019050919050565b60006122d2602583612879565b91506122dd82612c85565b604082019050919050565b60006122f5601c83612879565b915061230082612cd4565b602082019050919050565b6000612318602483612879565b915061232382612cfd565b604082019050919050565b600061233b601983612879565b915061234682612d4c565b602082019050919050565b600061235e602183612879565b915061236982612d75565b604082019050919050565b6000612381602983612879565b915061238c82612dc4565b604082019050919050565b60006123a4602e83612879565b91506123af82612e13565b604082019050919050565b60006123c7601483612879565b91506123d282612e62565b602082019050919050565b60006123ea603e83612879565b91506123f582612e8b565b604082019050919050565b600061240d602083612879565b915061241882612eda565b602082019050919050565b6000612430602083612879565b915061243b82612f03565b602082019050919050565b6000612453601883612879565b915061245e82612f2c565b602082019050919050565b6000612476602183612879565b915061248182612f55565b604082019050919050565b6000612499602e83612879565b91506124a482612fa4565b604082019050919050565b6124b8816129ba565b82525050565b6124c7816129c4565b82525050565b60006124d9828561224e565b91506124e5828461224e565b91508190509392505050565b600060208201905061250660008301846121be565b92915050565b600060808201905061252160008301876121be565b61252e60208301866121be565b61253b60408301856124af565b818103606083015261254d81846121dc565b905095945050505050565b600060208201905061256d60008301846121cd565b92915050565b6000602082019050818103600083015261258d8184612215565b905092915050565b600060208201905081810360008301526125ae8161227f565b9050919050565b600060208201905081810360008301526125ce816122a2565b9050919050565b600060208201905081810360008301526125ee816122c5565b9050919050565b6000602082019050818103600083015261260e816122e8565b9050919050565b6000602082019050818103600083015261262e8161230b565b9050919050565b6000602082019050818103600083015261264e8161232e565b9050919050565b6000602082019050818103600083015261266e81612351565b9050919050565b6000602082019050818103600083015261268e81612374565b9050919050565b600060208201905081810360008301526126ae81612397565b9050919050565b600060208201905081810360008301526126ce816123ba565b9050919050565b600060208201905081810360008301526126ee816123dd565b9050919050565b6000602082019050818103600083015261270e81612400565b9050919050565b6000602082019050818103600083015261272e81612423565b9050919050565b6000602082019050818103600083015261274e81612446565b9050919050565b6000602082019050818103600083015261276e81612469565b9050919050565b6000602082019050818103600083015261278e8161248c565b9050919050565b60006020820190506127aa60008301846124af565b92915050565b60006020820190506127c560008301846124be565b92915050565b60006127d56127e6565b90506127e18282612a45565b919050565b6000604051905090565b600067ffffffffffffffff82111561280b5761280a612ba7565b5b61281482612bd6565b9050602081019050919050565b600067ffffffffffffffff82111561283c5761283b612ba7565b5b61284582612bd6565b9050602081019050919050565b600081519050919050565b600081519050919050565b600082825260208201905092915050565b600082825260208201905092915050565b600081905092915050565b60006128a0826129ba565b91506128ab836129ba565b9250827fffffffffffffffffffffffffffffffffffffffffffffffffffffffffffffffff038211156128e0576128df612b1a565b5b828201905092915050565b60006128f6826129ba565b9150612901836129ba565b92508261291157612910612b49565b5b828204905092915050565b6000612927826129ba565b9150612932836129ba565b92508282101561294557612944612b1a565b5b828203905092915050565b600061295b8261299a565b9050919050565b60008115159050919050565b60007fffffffff0000000000000000000000000000000000000000000000000000000082169050919050565b600073ffffffffffffffffffffffffffffffffffffffff82169050919050565b6000819050919050565b600060ff82169050919050565b82818337600083830152505050565b60005b838110156129fe5780820151818401526020810190506129e3565b83811115612a0d576000848401525b50505050565b60006002820490506001821680612a2b57607f821691505b60208210811415612a3f57612a3e612b78565b5b50919050565b612a4e82612bd6565b810181811067ffffffffffffffff82111715612a6d57612a6c612ba7565b5b80604052505050565b6000612a81826129ba565b91507fffffffffffffffffffffffffffffffffffffffffffffffffffffffffffffffff821415612ab457612ab3612b1a565b5b600182019050919050565b6000612aca826129c4565b915060ff821415612ade57612add612b1a565b5b600182019050919050565b6000612af4826129ba565b9150612aff836129ba565b925082612b0f57612b0e612b49565b5b828206905092915050565b7f4e487b7100000000000000000000000000000000000000000000000000000000600052601160045260246000fd5b7f4e487b7100000000000000000000000000000000000000000000000000000000600052601260045260246000fd5b7f4e487b7100000000000000000000000000000000000000000000000000000000600052602260045260246000fd5b7f4e487b7100000000000000000000000000000000000000000000000000000000600052604160045260246000fd5b6000601f19601f8301169050919050565b7f4552433732313a207472616e7366657220746f206e6f6e20455243373231526560008201527f63656976657220696d706c656d656e7465720000000000000000000000000000602082015250565b7f4f776e61626c653a206e6577206f776e657220697320746865207a65726f206160008201527f6464726573730000000000000000000000000000000000000000000000000000602082015250565b7f4552433732313a207472616e736665722066726f6d20696e636f72726563742060008201527f6f776e6572000000000000000000000000000000000000000000000000000000602082015250565b7f4552433732313a20746f6b656e20616c7265616479206d696e74656400000000600082015250565b7f4552433732313a207472616e7366657220746f20746865207a65726f2061646460008201527f7265737300000000000000000000000000000000000000000000000000000000602082015250565b7f4552433732313a20617070726f766520746f2063616c6c657200000000000000600082015250565b7f4e6f7420656e6f7567682066756e647320666f72206d696e74696e67204e465460008201527f2e00000000000000000000000000000000000000000000000000000000000000602082015250565b7f4552433732313a2061646472657373207a65726f206973206e6f74206120766160008201527f6c6964206f776e65720000000000000000000000000000000000000000000000602082015250565b7f45524337323155524953746f726167653a2055524920736574206f66206e6f6e60008201527f6578697374656e7420746f6b656e000000000000000000000000000000000000602082015250565b7f416c6c204e46547320617265206d696e7465642e000000000000000000000000600082015250565b7f4552433732313a20617070726f76652063616c6c6572206973206e6f7420746f60008201527f6b656e206f776e6572206e6f7220617070726f76656420666f7220616c6c0000602082015250565b7f4552433732313a206d696e7420746f20746865207a65726f2061646472657373600082015250565b7f4f776e61626c653a2063616c6c6572206973206e6f7420746865206f776e6572600082015250565b7f4552433732313a20696e76616c696420746f6b656e2049440000000000000000600082015250565b7f4552433732313a20617070726f76616c20746f2063757272656e74206f776e6560008201527f7200000000000000000000000000000000000000000000000000000000000000602082015250565b7f4552433732313a2063616c6c6572206973206e6f7420746f6b656e206f776e6560008201527f72206e6f7220617070726f766564000000000000000000000000000000000000602082015250565b612ffc81612950565b811461300757600080fd5b50565b61301381612962565b811461301e57600080fd5b50565b61302a8161296e565b811461303557600080fd5b50565b613041816129ba565b811461304c57600080fd5b5056fea264697066735822122014878f5408332d4984d05447980f19b22a5997953049751f37cf36b000c5689f64736f6c63430008040033",
    "linkReferences": {},
    "deployedLinkReferences": {}
}